{"address":"0x1A3dB7484259c933115AbbCB2F09D8343a862071","_format":"hh-sol-artifact-1","contractName":"stDAO","sourceName":"contracts/stDAO.sol","abi":[{"inputs":[{"internalType":"address","name":"_saveTiger","type":"address"}],"stateMutability":"nonpayable","type":"constructor"},{"anonymous":false,"inputs":[{"indexed":true,"internalType":"address","name":"previousOwner","type":"address"},{"indexed":true,"internalType":"address","name":"newOwner","type":"address"}],"name":"OwnershipTransferred","type":"event"},{"stateMutability":"payable","type":"fallback"},{"inputs":[{"internalType":"uint256","name":"","type":"uint256"}],"name":"acceptedProposals","outputs":[{"internalType":"address","name":"transferTo","type":"address"},{"internalType":"uint256","name":"deadline","type":"uint256"},{"internalType":"uint256","name":"yayVotes","type":"uint256"},{"internalType":"uint256","name":"nayVotes","type":"uint256"},{"internalType":"uint256","name":"amount","type":"uint256"},{"internalType":"bool","name":"executed","type":"bool"}],"stateMutability":"view","type":"function"},{"inputs":[{"internalType":"address","name":"_transferTo","type":"address"},{"internalType":"uint256","name":"_amount","type":"uint256"}],"name":"createProposal","outputs":[{"internalType":"uint256","name":"","type":"uint256"}],"stateMutability":"nonpayable","type":"function"},{"inputs":[{"internalType":"uint256","name":"proposalIndex","type":"uint256"}],"name":"executeProposal","outputs":[],"stateMutability":"nonpayable","type":"function"},{"inputs":[],"name":"numOfProposals","outputs":[{"internalType":"uint256","name":"","type":"uint256"}],"stateMutability":"view","type":"function"},{"inputs":[],"name":"owner","outputs":[{"internalType":"address","name":"","type":"address"}],"stateMutability":"view","type":"function"},{"inputs":[{"internalType":"uint256","name":"","type":"uint256"}],"name":"proposals","outputs":[{"internalType":"address","name":"transferTo","type":"address"},{"internalType":"uint256","name":"deadline","type":"uint256"},{"internalType":"uint256","name":"yayVotes","type":"uint256"},{"internalType":"uint256","name":"nayVotes","type":"uint256"},{"internalType":"uint256","name":"amount","type":"uint256"},{"internalType":"bool","name":"executed","type":"bool"}],"stateMutability":"view","type":"function"},{"inputs":[],"name":"renounceOwnership","outputs":[],"stateMutability":"nonpayable","type":"function"},{"inputs":[{"internalType":"address","name":"newOwner","type":"address"}],"name":"transferOwnership","outputs":[],"stateMutability":"nonpayable","type":"function"},{"inputs":[{"internalType":"uint256","name":"proposalIndex","type":"uint256"},{"internalType":"enum stDAO.Vote","name":"vote","type":"uint8"}],"name":"voteOnProposal","outputs":[],"stateMutability":"nonpayable","type":"function"},{"inputs":[],"name":"withDraw","outputs":[],"stateMutability":"nonpayable","type":"function"},{"stateMutability":"payable","type":"receive"}],"bytecode":"0x60806040523480156200001157600080fd5b5060405162001760380380620017608339818101604052810190620000379190620001d5565b620000576200004b6200009f60201b60201c565b620000a760201b60201c565b80600260006101000a81548173ffffffffffffffffffffffffffffffffffffffff021916908373ffffffffffffffffffffffffffffffffffffffff1602179055505062000207565b600033905090565b60008060009054906101000a900473ffffffffffffffffffffffffffffffffffffffff169050816000806101000a81548173ffffffffffffffffffffffffffffffffffffffff021916908373ffffffffffffffffffffffffffffffffffffffff1602179055508173ffffffffffffffffffffffffffffffffffffffff168173ffffffffffffffffffffffffffffffffffffffff167f8be0079c531659141344cd1fd0a4f28419497f9722a3daafe3b4186f6b6457e060405160405180910390a35050565b600080fd5b600073ffffffffffffffffffffffffffffffffffffffff82169050919050565b60006200019d8262000170565b9050919050565b620001af8162000190565b8114620001bb57600080fd5b50565b600081519050620001cf81620001a4565b92915050565b600060208284031215620001ee57620001ed6200016b565b5b6000620001fe84828501620001be565b91505092915050565b61154980620002176000396000f3fe6080604052600436106100955760003560e01c80638da5cb5b116100595780638da5cb5b146101625780638ed1b9451461018d578063dfc51a25146101cf578063efafb22e1461020c578063f2fde38b146102355761009c565b8063013cf08b1461009e5780630d61b519146100e05780630fdb1c10146101095780635f57025314610120578063715018a61461014b5761009c565b3661009c57005b005b3480156100aa57600080fd5b506100c560048036038101906100c09190610dd9565b61025e565b6040516100d796959493929190610e71565b60405180910390f35b3480156100ec57600080fd5b5061010760048036038101906101029190610dd9565b6102c7565b005b34801561011557600080fd5b5061011e610573565b005b34801561012c57600080fd5b506101356105cb565b6040516101429190610ed2565b60405180910390f35b34801561015757600080fd5b506101606105d1565b005b34801561016e57600080fd5b506101776105e5565b6040516101849190610eed565b60405180910390f35b34801561019957600080fd5b506101b460048036038101906101af9190610dd9565b61060e565b6040516101c696959493929190610e71565b60405180910390f35b3480156101db57600080fd5b506101f660048036038101906101f19190610f34565b610677565b6040516102039190610ed2565b60405180910390f35b34801561021857600080fd5b50610233600480360381019061022e9190610f99565b61082c565b005b34801561024157600080fd5b5061025c60048036038101906102579190610fd9565b610bd0565b005b60036020528060005260406000206000915090508060000160009054906101000a900473ffffffffffffffffffffffffffffffffffffffff16908060010154908060020154908060030154908060040154908060050160009054906101000a900460ff16905086565b6000600260009054906101000a900473ffffffffffffffffffffffffffffffffffffffff1673ffffffffffffffffffffffffffffffffffffffff166370a08231336040518263ffffffff1660e01b81526004016103249190610eed565b60206040518083038186803b15801561033c57600080fd5b505afa158015610350573d6000803e3d6000fd5b505050506040513d601f19601f82011682018060405250810190610374919061101b565b116103b4576040517f08c379a00000000000000000000000000000000000000000000000000000000081526004016103ab906110a5565b60405180910390fd5b804260036000838152602001908152602001600020600101541161040d576040517f08c379a000000000000000000000000000000000000000000000000000000000815260040161040490611111565b60405180910390fd5b600060036000848152602001908152602001600020905080600301548160020154111561055157806004015447101561047b576040517f08c379a00000000000000000000000000000000000000000000000000000000081526004016104729061117d565b60405180910390fd5b60008160000160009054906101000a900473ffffffffffffffffffffffffffffffffffffffff1673ffffffffffffffffffffffffffffffffffffffff1682600401546040516104c9906111ce565b60006040518083038185875af1925050503d8060008114610506576040519150601f19603f3d011682016040523d82523d6000602084013e61050b565b606091505b505090508061054f576040517f08c379a00000000000000000000000000000000000000000000000000000000081526004016105469061122f565b60405180910390fd5b505b60018160050160006101000a81548160ff021916908315150217905550505050565b61057b610c54565b6105836105e5565b73ffffffffffffffffffffffffffffffffffffffff166108fc479081150290604051600060405180830381858888f193505050501580156105c8573d6000803e3d6000fd5b50565b60015481565b6105d9610c54565b6105e36000610cd2565b565b60008060009054906101000a900473ffffffffffffffffffffffffffffffffffffffff16905090565b60046020528060005260406000206000915090508060000160009054906101000a900473ffffffffffffffffffffffffffffffffffffffff16908060010154908060020154908060030154908060040154908060050160009054906101000a900460ff16905086565b600080600260009054906101000a900473ffffffffffffffffffffffffffffffffffffffff1673ffffffffffffffffffffffffffffffffffffffff166370a08231336040518263ffffffff1660e01b81526004016106d59190610eed565b60206040518083038186803b1580156106ed57600080fd5b505afa158015610701573d6000803e3d6000fd5b505050506040513d601f19601f82011682018060405250810190610725919061101b565b11610765576040517f08c379a000000000000000000000000000000000000000000000000000000000815260040161075c906110a5565b60405180910390fd5b60006003600060015481526020019081526020016000209050838160000160006101000a81548173ffffffffffffffffffffffffffffffffffffffff021916908373ffffffffffffffffffffffffffffffffffffffff16021790555061012c426107cf919061127e565b816001018190555082816004018190555060008160050160006101000a81548160ff02191690831515021790555060016000815480929190610810906112d4565b919050555060018054610823919061131d565b91505092915050565b6000600260009054906101000a900473ffffffffffffffffffffffffffffffffffffffff1673ffffffffffffffffffffffffffffffffffffffff166370a08231336040518263ffffffff1660e01b81526004016108899190610eed565b60206040518083038186803b1580156108a157600080fd5b505afa1580156108b5573d6000803e3d6000fd5b505050506040513d601f19601f820116820180604052508101906108d9919061101b565b11610919576040517f08c379a0000000000000000000000000000000000000000000000000000000008152600401610910906110a5565b60405180910390fd5b60006003600084815260200190815260200160002090506000600260009054906101000a900473ffffffffffffffffffffffffffffffffffffffff1673ffffffffffffffffffffffffffffffffffffffff166370a08231336040518263ffffffff1660e01b815260040161098d9190610eed565b60206040518083038186803b1580156109a557600080fd5b505afa1580156109b9573d6000803e3d6000fd5b505050506040513d601f19601f820116820180604052508101906109dd919061101b565b90506000805b82811015610b1c576000600260009054906101000a900473ffffffffffffffffffffffffffffffffffffffff1673ffffffffffffffffffffffffffffffffffffffff16632f745c5933846040518363ffffffff1660e01b8152600401610a4a929190611351565b60206040518083038186803b158015610a6257600080fd5b505afa158015610a76573d6000803e3d6000fd5b505050506040513d601f19601f82011682018060405250810190610a9a919061101b565b90506000151585600601600083815260200190815260200160002060009054906101000a900460ff1615151415610b08578280610ad6906112d4565b935050600185600601600083815260200190815260200160002060006101000a81548160ff0219169083151502179055505b508080610b14906112d4565b9150506109e3565b5060008111610b60576040517f08c379a0000000000000000000000000000000000000000000000000000000008152600401610b57906113c6565b60405180910390fd5b60006001811115610b7457610b736113e6565b5b846001811115610b8757610b866113e6565b5b1415610bad5780836002016000828254610ba1919061127e565b92505081905550610bc9565b80836003016000828254610bc1919061127e565b925050819055505b5050505050565b610bd8610c54565b600073ffffffffffffffffffffffffffffffffffffffff168173ffffffffffffffffffffffffffffffffffffffff161415610c48576040517f08c379a0000000000000000000000000000000000000000000000000000000008152600401610c3f90611487565b60405180910390fd5b610c5181610cd2565b50565b610c5c610d96565b73ffffffffffffffffffffffffffffffffffffffff16610c7a6105e5565b73ffffffffffffffffffffffffffffffffffffffff1614610cd0576040517f08c379a0000000000000000000000000000000000000000000000000000000008152600401610cc7906114f3565b60405180910390fd5b565b60008060009054906101000a900473ffffffffffffffffffffffffffffffffffffffff169050816000806101000a81548173ffffffffffffffffffffffffffffffffffffffff021916908373ffffffffffffffffffffffffffffffffffffffff1602179055508173ffffffffffffffffffffffffffffffffffffffff168173ffffffffffffffffffffffffffffffffffffffff167f8be0079c531659141344cd1fd0a4f28419497f9722a3daafe3b4186f6b6457e060405160405180910390a35050565b600033905090565b600080fd5b6000819050919050565b610db681610da3565b8114610dc157600080fd5b50565b600081359050610dd381610dad565b92915050565b600060208284031215610def57610dee610d9e565b5b6000610dfd84828501610dc4565b91505092915050565b600073ffffffffffffffffffffffffffffffffffffffff82169050919050565b6000610e3182610e06565b9050919050565b610e4181610e26565b82525050565b610e5081610da3565b82525050565b60008115159050919050565b610e6b81610e56565b82525050565b600060c082019050610e866000830189610e38565b610e936020830188610e47565b610ea06040830187610e47565b610ead6060830186610e47565b610eba6080830185610e47565b610ec760a0830184610e62565b979650505050505050565b6000602082019050610ee76000830184610e47565b92915050565b6000602082019050610f026000830184610e38565b92915050565b610f1181610e26565b8114610f1c57600080fd5b50565b600081359050610f2e81610f08565b92915050565b60008060408385031215610f4b57610f4a610d9e565b5b6000610f5985828601610f1f565b9250506020610f6a85828601610dc4565b9150509250929050565b60028110610f8157600080fd5b50565b600081359050610f9381610f74565b92915050565b60008060408385031215610fb057610faf610d9e565b5b6000610fbe85828601610dc4565b9250506020610fcf85828601610f84565b9150509250929050565b600060208284031215610fef57610fee610d9e565b5b6000610ffd84828501610f1f565b91505092915050565b60008151905061101581610dad565b92915050565b60006020828403121561103157611030610d9e565b5b600061103f84828501611006565b91505092915050565b600082825260208201905092915050565b7f4e6f7420612044414f206d656d62657221000000000000000000000000000000600082015250565b600061108f601183611048565b915061109a82611059565b602082019050919050565b600060208201905081810360008301526110be81611082565b9050919050565b7f446561646c696e6520686173206265656e206578636565640000000000000000600082015250565b60006110fb601883611048565b9150611106826110c5565b602082019050919050565b6000602082019050818103600083015261112a816110ee565b9050919050565b7f4e4f545f454e4f5547485f46554e445300000000000000000000000000000000600082015250565b6000611167601083611048565b915061117282611131565b602082019050919050565b600060208201905081810360008301526111968161115a565b9050919050565b600081905092915050565b50565b60006111b860008361119d565b91506111c3826111a8565b600082019050919050565b60006111d9826111ab565b9150819050919050565b7f536f6d657468696e672077656e742077726f6e672e2e2e000000000000000000600082015250565b6000611219601783611048565b9150611224826111e3565b602082019050919050565b600060208201905081810360008301526112488161120c565b9050919050565b7f4e487b7100000000000000000000000000000000000000000000000000000000600052601160045260246000fd5b600061128982610da3565b915061129483610da3565b9250827fffffffffffffffffffffffffffffffffffffffffffffffffffffffffffffffff038211156112c9576112c861124f565b5b828201905092915050565b60006112df82610da3565b91507fffffffffffffffffffffffffffffffffffffffffffffffffffffffffffffffff8214156113125761131161124f565b5b600182019050919050565b600061132882610da3565b915061133383610da3565b9250828210156113465761134561124f565b5b828203905092915050565b60006040820190506113666000830185610e38565b6113736020830184610e47565b9392505050565b7f416c726561647920766f74656400000000000000000000000000000000000000600082015250565b60006113b0600d83611048565b91506113bb8261137a565b602082019050919050565b600060208201905081810360008301526113df816113a3565b9050919050565b7f4e487b7100000000000000000000000000000000000000000000000000000000600052602160045260246000fd5b7f4f776e61626c653a206e6577206f776e657220697320746865207a65726f206160008201527f6464726573730000000000000000000000000000000000000000000000000000602082015250565b6000611471602683611048565b915061147c82611415565b604082019050919050565b600060208201905081810360008301526114a081611464565b9050919050565b7f4f776e61626c653a2063616c6c6572206973206e6f7420746865206f776e6572600082015250565b60006114dd602083611048565b91506114e8826114a7565b602082019050919050565b6000602082019050818103600083015261150c816114d0565b905091905056fea264697066735822122086f28df6baac845d9ca64177e2756bc8d37aaef56d2b0ffeb950ac0d384c143764736f6c63430008090033","linkReferences":{},"deployedLinkReferences":{}}